:0600000000F083EF05F0A3
:100600000001000A006400E80310272569000000CB
:10061000FFFF000E166E110E156E9DD01E50250A9E
:10062000D8B409D00DC0D9FF0EC0DAFF1EC0DFFF5D
:100630000D4A0E2A90D0000E176E0FC0F6FF10C0A4
:10064000F7FF0F4A102A0800FFFFF5CF1EF01E50DB
:10065000000AD8B48CD0640AD8B403D00D0AD8A448
:100660007AD015C0D9FF16C0DAFFDECF19F0DDCF82
:100670001AF0020E1526000E16221A50800AF36E8A
:10068000800EF35C000ED8B4195CD8B006D0030E0F
:100690001712196C1A1ED8B01A2A010E1E6E1E509F
:1006A000050AD8B418D01E50020D010EF324F66EC0
:1006B000060EF420F76E0900FFFFF5CF13F00900D6
:1006C000FFFFF5CF14F01350195C14501A58D8A03E
:1006D00002D01E2AE4D717C013F0030E1316D8B4A5
:1006E00008D00DC0D9FF0EC0DAFF2D0EDF6E0D4A07
:1006F0000E2A1EC018F02BD01850020D010EF32444
:10070000F66E060EF420F76E0900FFFFF5CF03F03A
:100710000A00FFFFF5CF04F019C001F01AC002F083
:10072000A7EC04F001C008F002C009F0000E0B6E47
:100730000A0E0A6ED2EC04F00850300F1E6E0DC087
:10074000D9FF0EC0DAFF1EC0DFFF0D4A0E2A1806C1
:100750001828D8A4D1D70FC0F6FF10C0F7FF0F4A52
:10076000102A0800FFFFF5CF1EF01E6657D70DC0F8
:10077000D9FF0EC0DAFF000EDF6E1200FFFFFFFF91
:100780006BEC05F0310E0D6EBB0EE82EFED70D2E74
:10079000FCD7310E0D6EBB0EE82EFED70D2EFCD70A
:1007A000310E0D6EBB0EE82EFED70D2EFCD7310E8E
:1007B0000D6EBB0EE82EFED70D2EFCD790EC05F08B
:1007C00094EC05F0300EF5EC04F01E0E0D6E3C0EB0
:1007D000E82EFED70D2EFCD700D0300EF5EC04F03D
:1007E000960EE82EFED7300EF5EC04F0200EF5EC58
:1007F00004F038EC05F0280E53EC05F0080E53EC2D
:1008000005F0010E53EC05F0060E53EC05F00C0E4E
:1008100053EC05F01200FFFFFFFF83CF01F0013A18
:100820000F0E0116010E0116013AF00E011683CFCC
:1008300002F0050E036ED8900232032EFCD7010E93
:100840000216050E046ED8900236042EFCD783CF14
:1008500005F0060E066ED8900532062EFCD7010E66
:100860000516060E076ED8900536072EFCD7086AC7
:1008700083AE01D0082A010E0816000E08B0800EC3
:10088000086E08500510021001101200FFFFFFFF54
:10089000000E2A6E000E296EBFEC03F0000E2A6EC9
:1008A000000E296E3C0E295C000E2A58D8B0F6D7EF
:1008B000800E53EC05F0000E0E6E1F0E0D6E060E30
:1008C000106E0B0E0F6E29C011F02AC012F008EC4A
:1008D00003F0000E0E6E1F0E0D6E0FEC05F0030EF2
:1008E000026EE80E016E24EC05F0294A2A2ADAD7B6
:1008F000FFFF7CEC05F090EC05F08CEC05F000F0CF
:1009000000D000D0000E0B6E19D08C8600F000D005
:1009100000D00B6605D00CEC04F0F00B0A6E06D08C
:100920000CEC04F0096E09380F0B0A1200F000D02D
:1009300000D08C9600F000D000D00B2A010E0B6482
:10094000E4D70ABEDFD775EC05F01200FFFFFFFF0A
:10095000000E066E000E056E04500310D8B41CD0B5
:10096000010E076E04D0D89003360436072A04AE71
:10097000FAD7D890053606360350015C0450025869
:10098000D8A005D00350015E0450025A0580D890CB
:1009900004320332072EEDD705C001F006C002F085
:1009A0001200FFFFFFFF0B500A10D8B418D0010E41
:1009B0000C6E04D0D8900A360B360C2A0BAEFAD740
:1009C0000A50085C0B500958D8A004D00A50085EA1
:1009D0000B50095AD8900B320A320C2EF1D708C0AE
:1009E00008F009C009F01200FFFFFFFF016E01AE21
:1009F00002D08C8E01D08C9E01AC02D08C8C01D0A8
:100A00008C9C01AA02D08C8A01D08C9A01A802D0B9
:100A10008C8801D08C9838EC05F01200FFFFFFFFA6
:100A200009D00DC0D9FF0EC0DAFFDF5046EC05F04B
:100A30000D4A0E2A0DC0D9FF0EC0DAFFDF50D8B420
:100A40001200FFFFEED7FFFFFFFF07D0050E036E7A
:100A5000DF0EE82EFED7032EFCD70106D8A0020633
:100A60000128D8B40228D8B41200FFFFEFD7FFFF47
:100A7000FFFF00F000D000D08C8600F000D000D046
:100A80008C9600F000D000D01200FFFFFFFF0C6E2C
:100A900078EC04F088EC05F094EC05F00C5060EC78
:100AA00005F01200FFFFFFFF0C6E78EC04F090ECF5
:100AB00005F094EC05F00C5060EC05F01200FFFF1F
:100AC000FFFF026E0250F5EC04F00238F00BF5EC7B
:100AD00004F01200FFFFFFFF95929594959695986C
:100AE000959A959C959E1200FFFFFFFF9598959A09
:100AF000959C959E1200FFFFFFFF9588958A958C27
:100B0000958E1200FFFF000EF86E000147EF04F013
:100B1000FFFF8C821200FFFFFFFF8C841200FFFF9B
:100B2000FFFF8C921200FFFFFFFF8C941200FFFF6B
:020B3000FFFFC5
:020000040020DA
:08000000FFFFFFFFFFFFFFFF00
:020000040030CA
:0E000000FF220C0EFF0181FF0FC00FE00F402A
:00000001FF
